{
  "contractName": "product",
  "abi": [
    {
      "inputs": [
        {
          "internalType": "bytes32",
          "name": "",
          "type": "bytes32"
        }
      ],
      "name": "vProducts",
      "outputs": [
        {
          "internalType": "bool",
          "name": "",
          "type": "bool"
        }
      ],
      "stateMutability": "view",
      "type": "function"
    },
    {
      "inputs": [
        {
          "internalType": "bytes32",
          "name": "productId",
          "type": "bytes32"
        },
        {
          "internalType": "bytes32",
          "name": "pOwner",
          "type": "bytes32"
        }
      ],
      "name": "setProduct",
      "outputs": [],
      "stateMutability": "nonpayable",
      "type": "function"
    },
    {
      "inputs": [],
      "name": "viewProducts",
      "outputs": [
        {
          "internalType": "bytes32[]",
          "name": "",
          "type": "bytes32[]"
        },
        {
          "internalType": "bytes32[]",
          "name": "",
          "type": "bytes32[]"
        }
      ],
      "stateMutability": "view",
      "type": "function"
    },
    {
      "inputs": [
        {
          "internalType": "bytes32",
          "name": "vProductId",
          "type": "bytes32"
        }
      ],
      "name": "verifyFakeness",
      "outputs": [
        {
          "internalType": "bytes32",
          "name": "",
          "type": "bytes32"
        },
        {
          "internalType": "bytes32",
          "name": "",
          "type": "bytes32"
        }
      ],
      "stateMutability": "view",
      "type": "function"
    }
  ],
  "bytecode": "0x608060405234801561001057600080fd5b50610651806100206000396000f3fe608060405234801561001057600080fd5b506004361061004c5760003560e01c80631af8ecc9146100515780636158b5751461008257806375d7b0271461009e578063f9f24da1146100ce575b600080fd5b61006b6004803603810190610066919061039a565b6100ed565b6040516100799291906103d6565b60405180910390f35b61009c600480360381019061009791906103ff565b6101df565b005b6100b860048036038101906100b3919061039a565b61028c565b6040516100c5919061045a565b60405180910390f35b6100d66102ac565b6040516100e4929190610533565b60405180910390f35b600080600080806000905060008080549050111561015957600091505b60008054905082101561015857856000838154811061012c5761012b61056a565b5b9060005260206000200154141561014557819050600192505b8180610150906105d2565b92505061010a565b5b6001151583151514156101b0576000818154811061017a5761017961056a565b5b9060005260206000200154600182815481106101995761019861056a565b5b9060005260206000200154945094505050506101da565b7f66616b650000000000000000000000000000000000000000000000000000000080945094505050505b915091565b6002600083815260200190815260200160002060009054906101000a900460ff161561020a57600080fd5b60016002600084815260200190815260200160002060006101000a81548160ff021916908315150217905550600082908060018154018082558091505060019003906000526020600020016000909190919091505560018190806001815401808255809150506001900390600052602060002001600090919091909150555050565b60026020528060005260406000206000915054906101000a900460ff1681565b60608060006001818054806020026020016040519081016040528092919081815260200182805480156102fe57602002820191906000526020600020905b8154815260200190600101908083116102ea575b505050505091508080548060200260200160405190810160405280929190818152602001828054801561035057602002820191906000526020600020905b81548152602001906001019080831161033c575b50505050509050915091509091565b600080fd5b6000819050919050565b61037781610364565b811461038257600080fd5b50565b6000813590506103948161036e565b92915050565b6000602082840312156103b0576103af61035f565b5b60006103be84828501610385565b91505092915050565b6103d081610364565b82525050565b60006040820190506103eb60008301856103c7565b6103f860208301846103c7565b9392505050565b600080604083850312156104165761041561035f565b5b600061042485828601610385565b925050602061043585828601610385565b9150509250929050565b60008115159050919050565b6104548161043f565b82525050565b600060208201905061046f600083018461044b565b92915050565b600081519050919050565b600082825260208201905092915050565b6000819050602082019050919050565b6104aa81610364565b82525050565b60006104bc83836104a1565b60208301905092915050565b6000602082019050919050565b60006104e082610475565b6104ea8185610480565b93506104f583610491565b8060005b8381101561052657815161050d88826104b0565b9750610518836104c8565b9250506001810190506104f9565b5085935050505092915050565b6000604082019050818103600083015261054d81856104d5565b9050818103602083015261056181846104d5565b90509392505050565b7f4e487b7100000000000000000000000000000000000000000000000000000000600052603260045260246000fd5b7f4e487b7100000000000000000000000000000000000000000000000000000000600052601160045260246000fd5b6000819050919050565b60006105dd826105c8565b91507fffffffffffffffffffffffffffffffffffffffffffffffffffffffffffffffff8214156106105761060f610599565b5b60018201905091905056fea26469706673582212203f7fa48e5822b837fb844c7767f9b69d14c7465650d0e68c5129b9550287037d64736f6c634300080c0033",
  "immutableReferences": {},
  "source": "pragma solidity ^0.8.12;\r\n\r\ncontract product {\r\n\r\n    bytes32[] products;\r\n    bytes32[] owners;\r\n    mapping(bytes32 => bool) public vProducts;\r\n\r\n    function setProduct(bytes32 productId,bytes32 pOwner) public{\r\n\r\n        require(!vProducts[productId]);\r\n        vProducts[productId] = true;\r\n\r\n        products.push(productId);\r\n        owners.push(pOwner);\r\n                \r\n    }\r\n\r\n    function viewProducts () public view returns(bytes32[] memory, bytes32[] memory) {\r\n        return(products,owners);\r\n    }\r\n\r\n    function verifyFakeness(bytes32 vProductId) public view returns(bytes32,bytes32) {\r\n\r\n        bool status=false;\r\n        uint i;\r\n        uint j=0;\r\n\r\n        if(products.length>0) {\r\n            for(i=0;i<products.length;i++) {\r\n                if(products[i]==vProductId) {\r\n                    j=i;\r\n                    status=true;\r\n                }\r\n            }\r\n        }\r\n\r\n        if(status==true) {\r\n                return (products[j],owners[j]);\r\n        } else {\r\n                return(\"fake\",\"fake\");\r\n        }\r\n\r\n    }\r\n}\r\n\r\n",
  "sourcePath": "E:\\blockchain-projects\\fake-product-identification\\contracts\\product.sol",
  "compiler": {
    "name": "solc",
    "version": "0.8.12+commit.f00d7308.Emscripten.clang"
  },
  "schemaVersion": "3.4.5",
  "updatedAt": "2022-03-14T08:48:17.742Z",
  "devdoc": {
    "kind": "dev",
    "methods": {},
    "version": 1
  },
  "userdoc": {
    "kind": "user",
    "methods": {},
    "version": 1
  }
}