{
  "contractName": "product",
  "abi": [
    {
      "inputs": [
        {
          "internalType": "bytes32",
          "name": "",
          "type": "bytes32"
        }
      ],
      "name": "vProducts",
      "outputs": [
        {
          "internalType": "bool",
          "name": "",
          "type": "bool"
        }
      ],
      "stateMutability": "view",
      "type": "function",
      "constant": true
    },
    {
      "inputs": [
        {
          "internalType": "bytes32",
          "name": "productId",
          "type": "bytes32"
        },
        {
          "internalType": "bytes32",
          "name": "pOwner",
          "type": "bytes32"
        }
      ],
      "name": "setProduct",
      "outputs": [],
      "stateMutability": "nonpayable",
      "type": "function"
    },
    {
      "inputs": [],
      "name": "viewProducts",
      "outputs": [
        {
          "internalType": "bytes32[]",
          "name": "",
          "type": "bytes32[]"
        },
        {
          "internalType": "bytes32[]",
          "name": "",
          "type": "bytes32[]"
        },
        {
          "internalType": "bytes32[]",
          "name": "",
          "type": "bytes32[]"
        }
      ],
      "stateMutability": "view",
      "type": "function",
      "constant": true
    },
    {
      "inputs": [
        {
          "internalType": "bytes32",
          "name": "sProductId",
          "type": "bytes32"
        }
      ],
      "name": "sellProduct",
      "outputs": [],
      "stateMutability": "nonpayable",
      "type": "function"
    },
    {
      "inputs": [
        {
          "internalType": "bytes32",
          "name": "vProductId",
          "type": "bytes32"
        }
      ],
      "name": "verifyFakeness",
      "outputs": [
        {
          "internalType": "bytes32",
          "name": "",
          "type": "bytes32"
        },
        {
          "internalType": "bytes32",
          "name": "",
          "type": "bytes32"
        },
        {
          "internalType": "bytes32",
          "name": "",
          "type": "bytes32"
        }
      ],
      "stateMutability": "view",
      "type": "function",
      "constant": true
    }
  ],
  "bytecode": "0x608060405234801561001057600080fd5b50610931806100206000396000f3fe608060405234801561001057600080fd5b50600436106100575760003560e01c806301c2d2f21461005c5780631af8ecc9146100785780636158b575146100aa57806375d7b027146100c6578063f9f24da1146100f6575b600080fd5b61007660048036038101906100719190610657565b610116565b005b610092600480360381019061008d9190610657565b61020a565b6040516100a193929190610693565b60405180910390f35b6100c460048036038101906100bf91906106ca565b6103fd565b005b6100e060048036038101906100db9190610657565b6104f0565b6040516100ed9190610725565b60405180910390f35b6100fe610510565b60405161010d939291906107fe565b60405180910390f35b6000806000808080549050111561017757600091505b60008054905082101561017657836000838154811061014e5761014d61084a565b5b90600052602060002001541415610163578190505b818061016e906108b2565b92505061012c565b5b6002818154811061018b5761018a61084a565b5b906000526020600020015492507f417661696c61626c650000000000000000000000000000000000000000000000831415610204577f4e41000000000000000000000000000000000000000000000000000000000000600282815481106101f5576101f461084a565b5b90600052602060002001819055505b50505050565b600080600080600090506000806000905060008080549050111561027c57600091505b60008054905082101561027b57866000838154811061024f5761024e61084a565b5b9060005260206000200154141561026857819050600192505b8180610273906108b2565b92505061022d565b5b6001151583151514156103a9577f417661696c61626c650000000000000000000000000000000000000000000000600282815481106102be576102bd61084a565b5b9060005260206000200154141561033c57600081815481106102e3576102e261084a565b5b9060005260206000200154600182815481106103025761030161084a565b5b90600052602060002001547f417661696c61626c6500000000000000000000000000000000000000000000009550955095505050506103f6565b600081815481106103505761034f61084a565b5b90600052602060002001546001828154811061036f5761036e61084a565b5b90600052602060002001547f46616b65000000000000000000000000000000000000000000000000000000009550955095505050506103f6565b7f4e41000000000000000000000000000000000000000000000000000000000000807f46616b65000000000000000000000000000000000000000000000000000000009550955095505050505b9193909250565b6003600083815260200190815260200160002060009054906101000a900460ff161561042857600080fd5b60016003600084815260200190815260200160002060006101000a81548160ff02191690831515021790555060008290806001815401808255809150506001900390600052602060002001600090919091909150556001819080600181540180825580915050600190039060005260206000200160009091909190915055600280600181540180825580915050600190039060005260206000200160007f417661696c61626c6500000000000000000000000000000000000000000000009091909150555050565b60036020528060005260406000206000915054906101000a900460ff1681565b60608060606000600160028280548060200260200160405190810160405280929190818152602001828054801561056657602002820191906000526020600020905b815481526020019060010190808311610552575b50505050509250818054806020026020016040519081016040528092919081815260200182805480156105b857602002820191906000526020600020905b8154815260200190600101908083116105a4575b505050505091508080548060200260200160405190810160405280929190818152602001828054801561060a57602002820191906000526020600020905b8154815260200190600101908083116105f6575b50505050509050925092509250909192565b600080fd5b6000819050919050565b61063481610621565b811461063f57600080fd5b50565b6000813590506106518161062b565b92915050565b60006020828403121561066d5761066c61061c565b5b600061067b84828501610642565b91505092915050565b61068d81610621565b82525050565b60006060820190506106a86000830186610684565b6106b56020830185610684565b6106c26040830184610684565b949350505050565b600080604083850312156106e1576106e061061c565b5b60006106ef85828601610642565b925050602061070085828601610642565b9150509250929050565b60008115159050919050565b61071f8161070a565b82525050565b600060208201905061073a6000830184610716565b92915050565b600081519050919050565b600082825260208201905092915050565b6000819050602082019050919050565b61077581610621565b82525050565b6000610787838361076c565b60208301905092915050565b6000602082019050919050565b60006107ab82610740565b6107b5818561074b565b93506107c08361075c565b8060005b838110156107f15781516107d8888261077b565b97506107e383610793565b9250506001810190506107c4565b5085935050505092915050565b6000606082019050818103600083015261081881866107a0565b9050818103602083015261082c81856107a0565b9050818103604083015261084081846107a0565b9050949350505050565b7f4e487b7100000000000000000000000000000000000000000000000000000000600052603260045260246000fd5b7f4e487b7100000000000000000000000000000000000000000000000000000000600052601160045260246000fd5b6000819050919050565b60006108bd826108a8565b91507fffffffffffffffffffffffffffffffffffffffffffffffffffffffffffffffff8214156108f0576108ef610879565b5b60018201905091905056fea264697066735822122021856e2c494599dd0ffa3b776e0ff590733f12ab61c3e186e502302dd6aaf90564736f6c634300080c0033",
  "immutableReferences": {},
  "source": "pragma solidity ^0.8.12;\r\n\r\ncontract product {\r\n\r\n    bytes32[] products;\r\n    bytes32[] owners;\r\n    bytes32[] pStatus;\r\n\r\n    mapping(bytes32 => bool) public vProducts;\r\n\r\n    function setProduct(bytes32 productId,bytes32 pOwner) public{\r\n\r\n        require(!vProducts[productId]);\r\n        vProducts[productId] = true;\r\n\r\n        products.push(productId);\r\n        owners.push(pOwner);\r\n        pStatus.push(\"Available\");\r\n                \r\n    }\r\n\r\n    function viewProducts () public view returns(bytes32[] memory, bytes32[] memory,bytes32[] memory) {\r\n        return(products,owners,pStatus);\r\n    }\r\n\r\n    function sellProduct (bytes32 sProductId) public {\r\n        bytes32 status;\r\n        uint i;\r\n        uint j=0;\r\n\r\n        if(products.length>0) {\r\n            for(i=0;i<products.length;i++) {\r\n                if(products[i]==sProductId) {\r\n                    j=i;\r\n                }\r\n            }\r\n        }\r\n\r\n        status=pStatus[j];\r\n        if(status==\"Available\") {\r\n            pStatus[j]=\"NA\";\r\n        }\r\n    }\r\n\r\n    function verifyFakeness(bytes32 vProductId) public view returns(bytes32,bytes32,bytes32) {\r\n\r\n        bool status=false;\r\n        uint i;\r\n        uint j=0;\r\n\r\n        if(products.length>0) {\r\n            for(i=0;i<products.length;i++) {\r\n                if(products[i]==vProductId) {\r\n                    j=i;\r\n                    status=true;\r\n                }\r\n            }\r\n        }\r\n\r\n        if(status==true) {\r\n                if(pStatus[j]==\"Available\")\r\n                    return(products[j],owners[j],\"Available\");\r\n                else \r\n                    return (products[j],owners[j],\"Fake\");\r\n        } else {\r\n                return(\"NA\",\"NA\",\"Fake\");\r\n        }\r\n\r\n    }\r\n}\r\n\r\n",
  "sourcePath": "E:\\blockchain-projects\\fake-product-identification\\contracts\\product.sol",
  "compiler": {
    "name": "solc",
    "version": "0.8.12+commit.f00d7308.Emscripten.clang"
  },
  "schemaVersion": "3.4.5",
  "updatedAt": "2022-03-15T08:23:42.612Z",
  "networkType": "ethereum",
  "devdoc": {
    "kind": "dev",
    "methods": {},
    "version": 1
  },
  "userdoc": {
    "kind": "user",
    "methods": {},
    "version": 1
  }
}